:020000020000FC
:0200000021C01D
:10000E0053C01E000C02FFFF00010001020015008C
:10001E000004FF00A70000000000000000FF00FF2A
:10002E00FF006176722D666275732D677073206F97
:10003E006E6C696E650003E007BB03E008BB05E06C
:10004E000DBF01E003BF000000000000000002B77A
:10005E000030E9F700E003BF07E109B900E002B99B
:10006E0008E10AB902E008BBA0E6B0E0F0E0E0E18A
:10007E001CE024D032D0F0E0ECE115E01FD035D0FA
:10008E00F0E0E2E217E01AD0F0E0E0E313E116D080
:10009E00F0E0EAE215E012D030D019D013E005B747
:1000AE00006205BF8895FBCF05B70F7D05BF18957C
:1000BE00E199FECF1EBBE09A0DB3089505910D9305
:1000CE001A95E1F708955D9BFECF0CB9089505E5ED
:1000DE0010E8F9DF1A95E9F708952CE010E0E8DF53
:1000EE000D9313952A95D9F708952CE01CE0E0DFC7
:0C00FE000D9313952A9599F70895089525
:00000001FF
